{
  "contractName": "Messages",
  "abi": [
    {
      "constant": true,
      "inputs": [
        {
          "name": "",
          "type": "uint256"
        }
      ],
      "name": "messages",
      "outputs": [
        {
          "name": "sender",
          "type": "address"
        },
        {
          "name": "contents",
          "type": "string"
        }
      ],
      "payable": false,
      "stateMutability": "view",
      "type": "function"
    },
    {
      "constant": true,
      "inputs": [],
      "name": "proxy",
      "outputs": [
        {
          "name": "",
          "type": "address"
        }
      ],
      "payable": false,
      "stateMutability": "view",
      "type": "function"
    },
    {
      "inputs": [
        {
          "name": "_proxy",
          "type": "address"
        }
      ],
      "payable": false,
      "stateMutability": "nonpayable",
      "type": "constructor"
    },
    {
      "constant": false,
      "inputs": [
        {
          "name": "_x",
          "type": "address"
        },
        {
          "name": "_message",
          "type": "string"
        }
      ],
      "name": "postMessage",
      "outputs": [],
      "payable": false,
      "stateMutability": "nonpayable",
      "type": "function"
    },
    {
      "constant": false,
      "inputs": [
        {
          "name": "_message",
          "type": "string"
        }
      ],
      "name": "postMessageTraditional",
      "outputs": [],
      "payable": false,
      "stateMutability": "nonpayable",
      "type": "function"
    },
    {
      "constant": true,
      "inputs": [],
      "name": "count",
      "outputs": [
        {
          "name": "",
          "type": "uint256"
        }
      ],
      "payable": false,
      "stateMutability": "view",
      "type": "function"
    }
  ],
  "bytecode": "0x608060405234801561001057600080fd5b506040516020806106838339810180604052810190808051906020019092919050505080600160006101000a81548173ffffffffffffffffffffffffffffffffffffffff021916908373ffffffffffffffffffffffffffffffffffffffff160217905550506105ff806100846000396000f30060806040526004361061006d576000357c0100000000000000000000000000000000000000000000000000000000900463ffffffff16806306661abd146100725780630d80fefd1461009d57806392abce5414610176578063be237836146101ff578063ec55688914610268575b600080fd5b34801561007e57600080fd5b506100876102bf565b6040518082815260200191505060405180910390f35b3480156100a957600080fd5b506100c8600480360381019080803590602001909291905050506102cb565b604051808373ffffffffffffffffffffffffffffffffffffffff1673ffffffffffffffffffffffffffffffffffffffff16815260200180602001828103825283818151815260200191508051906020019080838360005b8381101561013a57808201518184015260208101905061011f565b50505050905090810190601f1680156101675780820380516001836020036101000a031916815260200191505b50935050505060405180910390f35b34801561018257600080fd5b506101fd600480360381019080803573ffffffffffffffffffffffffffffffffffffffff169060200190929190803590602001908201803590602001908080601f01602080910402602001604051908101604052809392919081815260200183838082843782019150505050505091929192905050506103b6565b005b34801561020b57600080fd5b50610266600480360381019080803590602001908201803590602001908080601f01602080910402602001604051908101604052809392919081815260200183838082843782019150505050505091929192905050506103d2565b005b34801561027457600080fd5b5061027d6103df565b604051808273ffffffffffffffffffffffffffffffffffffffff1673ffffffffffffffffffffffffffffffffffffffff16815260200191505060405180910390f35b60008080549050905090565b6000818154811015156102da57fe5b90600052602060002090600202016000915090508060000160009054906101000a900473ffffffffffffffffffffffffffffffffffffffff1690806001018054600181600116156101000203166002900480601f0160208091040260200160405190810160405280929190818152602001828054600181600116156101000203166002900480156103ac5780601f10610381576101008083540402835291602001916103ac565b820191906000526020600020905b81548152906001019060200180831161038f57829003601f168201915b5050505050905082565b60006103c183610405565b90506103cd818361046b565b505050565b6103dc338261046b565b50565b600160009054906101000a900473ffffffffffffffffffffffffffffffffffffffff1681565b6000600160009054906101000a900473ffffffffffffffffffffffffffffffffffffffff1673ffffffffffffffffffffffffffffffffffffffff163373ffffffffffffffffffffffffffffffffffffffff16146104625733610464565b815b9050919050565b600060408051908101604052808473ffffffffffffffffffffffffffffffffffffffff168152602001838152509080600181540180825580915050906001820390600052602060002090600202016000909192909190915060008201518160000160006101000a81548173ffffffffffffffffffffffffffffffffffffffff021916908373ffffffffffffffffffffffffffffffffffffffff160217905550602082015181600101908051906020019061052692919061052e565b505050505050565b828054600181600116156101000203166002900490600052602060002090601f016020900481019282601f1061056f57805160ff191683800117855561059d565b8280016001018555821561059d579182015b8281111561059c578251825591602001919060010190610581565b5b5090506105aa91906105ae565b5090565b6105d091905b808211156105cc5760008160009055506001016105b4565b5090565b905600a165627a7a723058200d659352f68fed079448ee7245be7af399b88d5d19cbb4979d249c7b4b19130b0029",
  "source": "/*\n  Copyright 2018 Bit Factory, Inc.\n\n  Licensed under the Apache License, Version 2.0 (the \"License\");\n  you may not use this file except in compliance with the License.\n  You may obtain a copy of the License at\n\n      http://www.apache.org/licenses/LICENSE-2.0\n\n  Unless required by applicable law or agreed to in writing, software\n  distributed under the License is distributed on an \"AS IS\" BASIS,\n  WITHOUT WARRANTIES OR CONDITIONS OF ANY KIND, either express or implied.\n  See the License for the specific language governing permissions and\n  limitations under the License.\n*/\n\npragma solidity 0.4.24;\n\ncontract Messages {\n    struct Message {\n        address sender;\n        string contents;\n    }\n    Message[] public messages;\n    address public proxy;\n\n    constructor(address _proxy) public {\n        proxy = _proxy;\n    }\n\n    // TxProxy対応のメソッド\n    function postMessage(address _x, string _message) public {\n        address _sender = sender(_x);\n        _postMessage(_sender, _message);\n    }\n\n    // 通常のメソッド\n    function postMessageTraditional(string _message) public {\n        _postMessage(msg.sender, _message);\n    }\n\n    function _postMessage(address _sender, string _message) private {\n        messages.push(Message({\n            sender: _sender,\n            contents: _message\n        }));\n    }\n\n    function count() public view returns (uint) {\n        return messages.length;\n    }\n\n    function sender (address _x) private view returns (address) {\n        return msg.sender == proxy ? _x : msg.sender;\n    }\n}\n",
  "sourcePath": "/Users/fengsheng/project/QuraPay/sample/contract/contracts/Messages.sol",
  "compiler": {
    "name": "solc",
    "version": "0.4.24+commit.e67f0147.Emscripten.clang"
  },
  "schemaVersion": "2.0.1",
  "updatedAt": "2019-05-27T05:51:31.927Z"
}